{
  "contractName": "Auction",
  "abi": [
    {
      "inputs": [
        {
          "internalType": "string[]",
          "name": "itemNames",
          "type": "string[]"
        }
      ],
      "stateMutability": "nonpayable",
      "type": "constructor"
    },
    {
      "inputs": [],
      "name": "auctioneer",
      "outputs": [
        {
          "internalType": "address",
          "name": "",
          "type": "address"
        }
      ],
      "stateMutability": "view",
      "type": "function",
      "constant": true
    },
    {
      "inputs": [
        {
          "internalType": "address",
          "name": "",
          "type": "address"
        }
      ],
      "name": "bidders",
      "outputs": [
        {
          "internalType": "string",
          "name": "name",
          "type": "string"
        },
        {
          "internalType": "bool",
          "name": "permissionToBid",
          "type": "bool"
        },
        {
          "internalType": "address",
          "name": "buyer",
          "type": "address"
        }
      ],
      "stateMutability": "view",
      "type": "function",
      "constant": true
    },
    {
      "inputs": [],
      "name": "item",
      "outputs": [
        {
          "internalType": "uint256",
          "name": "",
          "type": "uint256"
        }
      ],
      "stateMutability": "view",
      "type": "function",
      "constant": true
    },
    {
      "inputs": [
        {
          "internalType": "uint256",
          "name": "",
          "type": "uint256"
        }
      ],
      "name": "items",
      "outputs": [
        {
          "internalType": "string",
          "name": "name",
          "type": "string"
        },
        {
          "internalType": "bool",
          "name": "isSold",
          "type": "bool"
        },
        {
          "internalType": "uint256",
          "name": "highestBid",
          "type": "uint256"
        },
        {
          "internalType": "address",
          "name": "highestBidder",
          "type": "address"
        }
      ],
      "stateMutability": "view",
      "type": "function",
      "constant": true
    },
    {
      "inputs": [
        {
          "internalType": "uint256",
          "name": "number",
          "type": "uint256"
        }
      ],
      "name": "getInitPrice",
      "outputs": [
        {
          "internalType": "uint256",
          "name": "",
          "type": "uint256"
        }
      ],
      "stateMutability": "view",
      "type": "function",
      "constant": true
    },
    {
      "inputs": [],
      "name": "checkCanBid",
      "outputs": [],
      "stateMutability": "view",
      "type": "function",
      "constant": true
    },
    {
      "inputs": [
        {
          "internalType": "string",
          "name": "name",
          "type": "string"
        },
        {
          "internalType": "address",
          "name": "bidder",
          "type": "address"
        }
      ],
      "name": "registerWithAuctioneer",
      "outputs": [],
      "stateMutability": "nonpayable",
      "type": "function"
    },
    {
      "inputs": [
        {
          "internalType": "uint256",
          "name": "itemIndex",
          "type": "uint256"
        }
      ],
      "name": "putItemUpForBidding",
      "outputs": [],
      "stateMutability": "nonpayable",
      "type": "function"
    },
    {
      "inputs": [],
      "name": "bid",
      "outputs": [],
      "stateMutability": "view",
      "type": "function",
      "constant": true
    },
    {
      "inputs": [],
      "name": "endAuction",
      "outputs": [],
      "stateMutability": "view",
      "type": "function",
      "constant": true
    }
  ],
  "bytecode": "0x60806040523480156200001157600080fd5b5060405162002a7938038062002a79833981810160405281019062000037919062000440565b336000806101000a81548173ffffffffffffffffffffffffffffffffffffffff021916908373ffffffffffffffffffffffffffffffffffffffff16021790555060005b8151811015620001a95760036040518060800160405280848481518110620000a757620000a662000491565b5b6020026020010151815260200160001515815260200160008152602001600073ffffffffffffffffffffffffffffffffffffffff16815250908060018154018082558091505060019003906000526020600020906004020160009091909190915060008201518160000190816200011f91906200070b565b5060208201518160010160006101000a81548160ff0219169083151502179055506040820151816002015560608201518160030160006101000a81548173ffffffffffffffffffffffffffffffffffffffff021916908373ffffffffffffffffffffffffffffffffffffffff16021790555050508080620001a09062000821565b9150506200007a565b50506200086e565b6000604051905090565b600080fd5b600080fd5b600080fd5b6000601f19601f8301169050919050565b7f4e487b7100000000000000000000000000000000000000000000000000000000600052604160045260246000fd5b6200021582620001ca565b810181811067ffffffffffffffff82111715620002375762000236620001db565b5b80604052505050565b60006200024c620001b1565b90506200025a82826200020a565b919050565b600067ffffffffffffffff8211156200027d576200027c620001db565b5b602082029050602081019050919050565b600080fd5b600080fd5b600067ffffffffffffffff821115620002b657620002b5620001db565b5b620002c182620001ca565b9050602081019050919050565b60005b83811015620002ee578082015181840152602081019050620002d1565b60008484015250505050565b6000620003116200030b8462000298565b62000240565b90508281526020810184848401111562000330576200032f62000293565b5b6200033d848285620002ce565b509392505050565b600082601f8301126200035d576200035c620001c5565b5b81516200036f848260208601620002fa565b91505092915050565b60006200038f62000389846200025f565b62000240565b90508083825260208201905060208402830185811115620003b557620003b46200028e565b5b835b818110156200040357805167ffffffffffffffff811115620003de57620003dd620001c5565b5b808601620003ed898262000345565b85526020850194505050602081019050620003b7565b5050509392505050565b600082601f830112620004255762000424620001c5565b5b81516200043784826020860162000378565b91505092915050565b600060208284031215620004595762000458620001bb565b5b600082015167ffffffffffffffff8111156200047a5762000479620001c0565b5b62000488848285016200040d565b91505092915050565b7f4e487b7100000000000000000000000000000000000000000000000000000000600052603260045260246000fd5b600081519050919050565b7f4e487b7100000000000000000000000000000000000000000000000000000000600052602260045260246000fd5b600060028204905060018216806200051357607f821691505b602082108103620005295762000528620004cb565b5b50919050565b60008190508160005260206000209050919050565b60006020601f8301049050919050565b600082821b905092915050565b600060088302620005937fffffffffffffffffffffffffffffffffffffffffffffffffffffffffffffffff8262000554565b6200059f868362000554565b95508019841693508086168417925050509392505050565b6000819050919050565b6000819050919050565b6000620005ec620005e6620005e084620005b7565b620005c1565b620005b7565b9050919050565b6000819050919050565b6200060883620005cb565b620006206200061782620005f3565b84845462000561565b825550505050565b600090565b6200063762000628565b62000644818484620005fd565b505050565b5b818110156200066c57620006606000826200062d565b6001810190506200064a565b5050565b601f821115620006bb5762000685816200052f565b620006908462000544565b81016020851015620006a0578190505b620006b8620006af8562000544565b83018262000649565b50505b505050565b600082821c905092915050565b6000620006e060001984600802620006c0565b1980831691505092915050565b6000620006fb8383620006cd565b9150826002028217905092915050565b6200071682620004c0565b67ffffffffffffffff811115620007325762000731620001db565b5b6200073e8254620004fa565b6200074b82828562000670565b600060209050601f8311600181146200078357600084156200076e578287015190505b6200077a8582620006ed565b865550620007ea565b601f19841662000793866200052f565b60005b82811015620007bd5784890151825560018201915060208501945060208101905062000796565b86831015620007dd5784890151620007d9601f891682620006cd565b8355505b6001600288020188555050505b505050505050565b7f4e487b7100000000000000000000000000000000000000000000000000000000600052601160045260246000fd5b60006200082e82620005b7565b91507fffffffffffffffffffffffffffffffffffffffffffffffffffffffffffffffff8203620008635762000862620007f2565b5b600182019050919050565b6121fb806200087e6000396000f3fe608060405234801561001057600080fd5b506004361061009e5760003560e01c8063ac06198511610066578063ac06198514610121578063bfb231d21461013d578063f2a4a82e14610170578063fcc8f7931461018e578063fe67a54b146101c05761009e565b80631998aeef146100a3578063326130c9146100ad5780635ec2c7bf146100dd578063633bc0cc146100fb57806394e916ef14610117575b600080fd5b6100ab6101ca565b005b6100c760048036038101906100c29190611352565b61055d565b6040516100d4919061138e565b60405180910390f35b6100e561062e565b6040516100f291906113ea565b60405180910390f35b61011560048036038101906101109190611352565b610652565b005b61011f61081c565b005b61013b60048036038101906101369190611496565b6108d8565b005b61015760048036038101906101529190611352565b610b4c565b60405161016794939291906115a1565b60405180910390f35b610178610c41565b604051610185919061138e565b60405180910390f35b6101a860048036038101906101a391906115ed565b610c47565b6040516101b79392919061161a565b60405180910390f35b6101c8610d26565b005b600260003373ffffffffffffffffffffffffffffffffffffffff1673ffffffffffffffffffffffffffffffffffffffff16815260200190815260200160002060010160009054906101000a900460ff16610259576040517f08c379a0000000000000000000000000000000000000000000000000000000008152600401610250906116f0565b60405180910390fd5b600060036001805461026b919061173f565b8154811061027c5761027b611773565b5b90600052602060002090600402016040518060800160405290816000820180546102a5906117d1565b80601f01602080910402602001604051908101604052809291908181526020018280546102d1906117d1565b801561031e5780601f106102f35761010080835404028352916020019161031e565b820191906000526020600020905b81548152906001019060200180831161030157829003601f168201915b505050505081526020016001820160009054906101000a900460ff16151515158152602001600282015481526020016003820160009054906101000a900473ffffffffffffffffffffffffffffffffffffffff1673ffffffffffffffffffffffffffffffffffffffff1673ffffffffffffffffffffffffffffffffffffffff168152505090506101f4816040018181516103b89190611802565b9150818152505033816060019073ffffffffffffffffffffffffffffffffffffffff16908173ffffffffffffffffffffffffffffffffffffffff168152505061050a6040518060400160405280601881526020017f2573206172652062696464696e6720257320666f722025640000000000000000815250600260003373ffffffffffffffffffffffffffffffffffffffff1673ffffffffffffffffffffffffffffffffffffffff168152602001908152602001600020600001805461047d906117d1565b80601f01602080910402602001604051908101604052809291908181526020018280546104a9906117d1565b80156104f65780601f106104cb576101008083540402835291602001916104f6565b820191906000526020600020905b8154815290600101906020018083116104d957829003601f168201915b505050505083600001518460400151610f32565b61055a6040518060400160405280600e81526020017f446f20776520686176652025643f0000000000000000000000000000000000008152506101f483604001516105559190611802565b610fd4565b50565b60008060009054906101000a900473ffffffffffffffffffffffffffffffffffffffff1673ffffffffffffffffffffffffffffffffffffffff163373ffffffffffffffffffffffffffffffffffffffff16146105ee576040517f08c379a00000000000000000000000000000000000000000000000000000000081526004016105e5906118a8565b60405180910390fd5b8142443360405160200161060493929190611931565b6040516020818303038152906040528051906020012060001c610627919061199d565b9050919050565b60008054906101000a900473ffffffffffffffffffffffffffffffffffffffff1681565b60008054906101000a900473ffffffffffffffffffffffffffffffffffffffff1673ffffffffffffffffffffffffffffffffffffffff163373ffffffffffffffffffffffffffffffffffffffff16146106e0576040517f08c379a00000000000000000000000000000000000000000000000000000000081526004016106d790611a66565b60405180910390fd5b60006103e86106ef600a61055d565b6106f99190611a86565b905081600181905550806003600184610712919061173f565b8154811061072357610722611773565b5b9060005260206000209060040201600201819055506108186040518060600160405280602e815260200161215a602e9139600360018054610764919061173f565b8154811061077557610774611773565b5b90600052602060002090600402016000018054610791906117d1565b80601f01602080910402602001604051908101604052809291908181526020018280546107bd906117d1565b801561080a5780601f106107df5761010080835404028352916020019161080a565b820191906000526020600020905b8154815290600101906020018083116107ed57829003601f168201915b505050505060015484611070565b5050565b600260003373ffffffffffffffffffffffffffffffffffffffff1673ffffffffffffffffffffffffffffffffffffffff16815260200190815260200160002060010160009054906101000a900460ff16156108b4576108af6040518060400160405280601b81526020017f596f752068617665207065726d697373696f6e20746f20626964210000000000815250611112565b6108d6565b6108d56040518060600160405280603c815260200161211e603c9139611112565b5b565b60008054906101000a900473ffffffffffffffffffffffffffffffffffffffff1673ffffffffffffffffffffffffffffffffffffffff163373ffffffffffffffffffffffffffffffffffffffff1614610966576040517f08c379a000000000000000000000000000000000000000000000000000000000815260040161095d90611b52565b60405180910390fd5b600260008273ffffffffffffffffffffffffffffffffffffffff1673ffffffffffffffffffffffffffffffffffffffff16815260200190815260200160002060010160009054906101000a900460ff16156109f6576040517f08c379a00000000000000000000000000000000000000000000000000000000081526004016109ed90611be4565b60405180910390fd5b6001600260008373ffffffffffffffffffffffffffffffffffffffff1673ffffffffffffffffffffffffffffffffffffffff16815260200190815260200160002060010160006101000a81548160ff0219169083151502179055508282600260008473ffffffffffffffffffffffffffffffffffffffff1673ffffffffffffffffffffffffffffffffffffffff1681526020019081526020016000206000019182610aa2929190611dea565b50610b096040518060600160405280603e8152602001612188603e913984848080601f016020809104026020016040519081016040528093929190818152602001838380828437600081840152601f19601f820116905080830192505050505050506111ab565b610b476040518060400160405280601681526020017f596f752063616e206e6f7720626964206974656d732e00000000000000000000815250611112565b505050565b60038181548110610b5c57600080fd5b9060005260206000209060040201600091509050806000018054610b7f906117d1565b80601f0160208091040260200160405190810160405280929190818152602001828054610bab906117d1565b8015610bf85780601f10610bcd57610100808354040283529160200191610bf8565b820191906000526020600020905b815481529060010190602001808311610bdb57829003601f168201915b5050505050908060010160009054906101000a900460ff16908060020154908060030160009054906101000a900473ffffffffffffffffffffffffffffffffffffffff16905084565b60015481565b6002602052806000526040600020600091509050806000018054610c6a906117d1565b80601f0160208091040260200160405190810160405280929190818152602001828054610c96906117d1565b8015610ce35780601f10610cb857610100808354040283529160200191610ce3565b820191906000526020600020905b815481529060010190602001808311610cc657829003601f168201915b5050505050908060010160009054906101000a900460ff16908060010160019054906101000a900473ffffffffffffffffffffffffffffffffffffffff16905083565b60008054906101000a900473ffffffffffffffffffffffffffffffffffffffff1673ffffffffffffffffffffffffffffffffffffffff163373ffffffffffffffffffffffffffffffffffffffff1614610db4576040517f08c379a0000000000000000000000000000000000000000000000000000000008152600401610dab90611f2c565b60405180910390fd5b60005b600380549050811015610f2f57610f1c6040518060400160405280601e81526020017f257320686173206265656e20736f6c6420746f20257320666f722025642e000081525060038381548110610e1157610e10611773565b5b90600052602060002090600402016000018054610e2d906117d1565b80601f0160208091040260200160405190810160405280929190818152602001828054610e59906117d1565b8015610ea65780601f10610e7b57610100808354040283529160200191610ea6565b820191906000526020600020905b815481529060010190602001808311610e8957829003601f168201915b505050505060038481548110610ebf57610ebe611773565b5b906000526020600020906004020160030160009054906101000a900473ffffffffffffffffffffffffffffffffffffffff1660038581548110610f0557610f04611773565b5b906000526020600020906004020160020154611247565b8080610f2790611f4c565b915050610db7565b50565b610fce84848484604051602401610f4c9493929190611f94565b6040516020818303038152906040527f8eafb02b000000000000000000000000000000000000000000000000000000007bffffffffffffffffffffffffffffffffffffffffffffffffffffffff19166020820180517bffffffffffffffffffffffffffffffffffffffffffffffffffffffff83818316178352505050506112e9565b50505050565b61106c8282604051602401610fea929190611fee565b6040516020818303038152906040527fb60e72cc000000000000000000000000000000000000000000000000000000007bffffffffffffffffffffffffffffffffffffffffffffffffffffffff19166020820180517bffffffffffffffffffffffffffffffffffffffffffffffffffffffff83818316178352505050506112e9565b5050565b61110c8484848460405160240161108a949392919061201e565b6040516020818303038152906040527ff45d7d2c000000000000000000000000000000000000000000000000000000007bffffffffffffffffffffffffffffffffffffffffffffffffffffffff19166020820180517bffffffffffffffffffffffffffffffffffffffffffffffffffffffff83818316178352505050506112e9565b50505050565b6111a8816040516024016111269190612071565b6040516020818303038152906040527f41304fac000000000000000000000000000000000000000000000000000000007bffffffffffffffffffffffffffffffffffffffffffffffffffffffff19166020820180517bffffffffffffffffffffffffffffffffffffffffffffffffffffffff83818316178352505050506112e9565b50565b61124382826040516024016111c1929190612093565b6040516020818303038152906040527f4b5c4277000000000000000000000000000000000000000000000000000000007bffffffffffffffffffffffffffffffffffffffffffffffffffffffff19166020820180517bffffffffffffffffffffffffffffffffffffffffffffffffffffffff83818316178352505050506112e9565b5050565b6112e38484848460405160240161126194939291906120ca565b6040516020818303038152906040527f7cc3c607000000000000000000000000000000000000000000000000000000007bffffffffffffffffffffffffffffffffffffffffffffffffffffffff19166020820180517bffffffffffffffffffffffffffffffffffffffffffffffffffffffff83818316178352505050506112e9565b50505050565b60008151905060006a636f6e736f6c652e6c6f679050602083016000808483855afa5050505050565b600080fd5b600080fd5b6000819050919050565b61132f8161131c565b811461133a57600080fd5b50565b60008135905061134c81611326565b92915050565b60006020828403121561136857611367611312565b5b60006113768482850161133d565b91505092915050565b6113888161131c565b82525050565b60006020820190506113a3600083018461137f565b92915050565b600073ffffffffffffffffffffffffffffffffffffffff82169050919050565b60006113d4826113a9565b9050919050565b6113e4816113c9565b82525050565b60006020820190506113ff60008301846113db565b92915050565b600080fd5b600080fd5b600080fd5b60008083601f84011261142a57611429611405565b5b8235905067ffffffffffffffff8111156114475761144661140a565b5b6020830191508360018202830111156114635761146261140f565b5b9250929050565b611473816113c9565b811461147e57600080fd5b50565b6000813590506114908161146a565b92915050565b6000806000604084860312156114af576114ae611312565b5b600084013567ffffffffffffffff8111156114cd576114cc611317565b5b6114d986828701611414565b935093505060206114ec86828701611481565b9150509250925092565b600081519050919050565b600082825260208201905092915050565b60005b83811015611530578082015181840152602081019050611515565b60008484015250505050565b6000601f19601f8301169050919050565b6000611558826114f6565b6115628185611501565b9350611572818560208601611512565b61157b8161153c565b840191505092915050565b60008115159050919050565b61159b81611586565b82525050565b600060808201905081810360008301526115bb818761154d565b90506115ca6020830186611592565b6115d7604083018561137f565b6115e460608301846113db565b95945050505050565b60006020828403121561160357611602611312565b5b600061161184828501611481565b91505092915050565b60006060820190508181036000830152611634818661154d565b90506116436020830185611592565b61165060408301846113db565b949350505050565b7f596f752068617665206e6f207065726d697373696f6e20746f2062696421204660008201527f697273742072656769737465722077697468207468652061756374696f6e656560208201527f722e000000000000000000000000000000000000000000000000000000000000604082015250565b60006116da604283611501565b91506116e582611658565b606082019050919050565b60006020820190508181036000830152611709816116cd565b9050919050565b7f4e487b7100000000000000000000000000000000000000000000000000000000600052601160045260246000fd5b600061174a8261131c565b91506117558361131c565b925082820390508181111561176d5761176c611710565b5b92915050565b7f4e487b7100000000000000000000000000000000000000000000000000000000600052603260045260246000fd5b7f4e487b7100000000000000000000000000000000000000000000000000000000600052602260045260246000fd5b600060028204905060018216806117e957607f821691505b6020821081036117fc576117fb6117a2565b5b50919050565b600061180d8261131c565b91506118188361131c565b92508282019050808211156118305761182f611710565b5b92915050565b7f4f6e6c79207468652061756374696f6e6565722063616e20757365207468697360008201527f206d6574686f6421000000000000000000000000000000000000000000000000602082015250565b6000611892602883611501565b915061189d82611836565b604082019050919050565b600060208201905081810360008301526118c181611885565b9050919050565b6000819050919050565b6118e36118de8261131c565b6118c8565b82525050565b60008160601b9050919050565b6000611901826118e9565b9050919050565b6000611913826118f6565b9050919050565b61192b611926826113c9565b611908565b82525050565b600061193d82866118d2565b60208201915061194d82856118d2565b60208201915061195d828461191a565b601482019150819050949350505050565b7f4e487b7100000000000000000000000000000000000000000000000000000000600052601260045260246000fd5b60006119a88261131c565b91506119b38361131c565b9250826119c3576119c261196e565b5b828206905092915050565b7f596f752063616e6e6f742070757420616e206974656d20757020666f7220626960008201527f642c206f6e6c79207468652061756374696f6e6565722063616e20646f20697460208201527f2e00000000000000000000000000000000000000000000000000000000000000604082015250565b6000611a50604183611501565b9150611a5b826119ce565b606082019050919050565b60006020820190508181036000830152611a7f81611a43565b9050919050565b6000611a918261131c565b9150611a9c8361131c565b9250817fffffffffffffffffffffffffffffffffffffffffffffffffffffffffffffffff0483118215151615611ad557611ad4611710565b5b828202905092915050565b7f4f6e6c79207468652061756374696f6e6565722063616e20676976652074686560008201527f207065726d697373696f6e20746f206269642100000000000000000000000000602082015250565b6000611b3c603383611501565b9150611b4782611ae0565b604082019050919050565b60006020820190508181036000830152611b6b81611b2f565b9050919050565b7f596f75206861766520616c7265616479206265656e206772616e74656420706560008201527f726d697373696f6e20746f206269642100000000000000000000000000000000602082015250565b6000611bce603083611501565b9150611bd982611b72565b604082019050919050565b60006020820190508181036000830152611bfd81611bc1565b9050919050565b600082905092915050565b7f4e487b7100000000000000000000000000000000000000000000000000000000600052604160045260246000fd5b60008190508160005260206000209050919050565b60006020601f8301049050919050565b600082821b905092915050565b600060088302611ca07fffffffffffffffffffffffffffffffffffffffffffffffffffffffffffffffff82611c63565b611caa8683611c63565b95508019841693508086168417925050509392505050565b6000819050919050565b6000611ce7611ce2611cdd8461131c565b611cc2565b61131c565b9050919050565b6000819050919050565b611d0183611ccc565b611d15611d0d82611cee565b848454611c70565b825550505050565b600090565b611d2a611d1d565b611d35818484611cf8565b505050565b5b81811015611d5957611d4e600082611d22565b600181019050611d3b565b5050565b601f821115611d9e57611d6f81611c3e565b611d7884611c53565b81016020851015611d87578190505b611d9b611d9385611c53565b830182611d3a565b50505b505050565b600082821c905092915050565b6000611dc160001984600802611da3565b1980831691505092915050565b6000611dda8383611db0565b9150826002028217905092915050565b611df48383611c04565b67ffffffffffffffff811115611e0d57611e0c611c0f565b5b611e1782546117d1565b611e22828285611d5d565b6000601f831160018114611e515760008415611e3f578287013590505b611e498582611dce565b865550611eb1565b601f198416611e5f86611c3e565b60005b82811015611e8757848901358255600182019150602085019450602081019050611e62565b86831015611ea45784890135611ea0601f891682611db0565b8355505b6001600288020188555050505b50505050505050565b7f4f6e6c79207468652061756374696f6e6565722063616e20656e64207468652060008201527f61756374696f6e21000000000000000000000000000000000000000000000000602082015250565b6000611f16602883611501565b9150611f2182611eba565b604082019050919050565b60006020820190508181036000830152611f4581611f09565b9050919050565b6000611f578261131c565b91507fffffffffffffffffffffffffffffffffffffffffffffffffffffffffffffffff8203611f8957611f88611710565b5b600182019050919050565b60006080820190508181036000830152611fae818761154d565b90508181036020830152611fc2818661154d565b90508181036040830152611fd6818561154d565b9050611fe5606083018461137f565b95945050505050565b60006040820190508181036000830152612008818561154d565b9050612017602083018461137f565b9392505050565b60006080820190508181036000830152612038818761154d565b9050818103602083015261204c818661154d565b905061205b604083018561137f565b612068606083018461137f565b95945050505050565b6000602082019050818103600083015261208b818461154d565b905092915050565b600060408201905081810360008301526120ad818561154d565b905081810360208301526120c1818461154d565b90509392505050565b600060808201905081810360008301526120e4818761154d565b905081810360208301526120f8818661154d565b905061210760408301856113db565b612114606083018461137f565b9594505050505056fe4e6f207065726d697373696f6e20746f206269642120526567697374657220796f757273656c662077697468207468652061756374696f6e6565722e57652068617665202573207769746820696e6465782025642e20546865206269642073746172747320617420256425732c20796f752068617665206265656e207375636365737366756c6c7920726567697374657265642077697468207468652061756374696f6e6565722ea264697066735822122043a5b199c4173a600063c6bad5c2e0ab6105eafad7c8ae643b3038efb1448b8f64736f6c63430008100033",
  "immutableReferences": {},
  "source": "// SPDX-License-Identifier: GPL-3.0\n\npragma solidity >=0.7.0 <0.9.0;\n\nimport \"hardhat/console.sol\";\n\ncontract Auction {\n\n    struct Bidder {\n        string name;\n        bool permissionToBid;\n        address buyer;\n    }\n\n    struct Item {\n        string name;\n        bool isSold;\n        uint highestBid;\n        address highestBidder;\n    }\n\n    address public auctioneer;\n\n    uint public item;\n\n    mapping(address => Bidder) public bidders;\n\n    Item[] public items;\n\n    constructor(string[] memory itemNames) {\n        auctioneer = msg.sender;\n\n        for (uint i = 0; i < itemNames.length; i++) {\n            items.push(Item({\n                name: itemNames[i],\n                highestBid: 0,\n                isSold: false,\n                highestBidder: payable(address(0))\n            }));\n        }\n    }\n\n    function getInitPrice(uint number) public view returns(uint) {\n        require(\n            msg.sender == auctioneer,\n            \"Only the auctioneer can use this method!\"\n        );\n        return uint(keccak256(abi.encodePacked(block.timestamp, block.difficulty, msg.sender))) % number;\n    }\n\n    function checkCanBid() public view {\n        if(bidders[msg.sender].permissionToBid) {\n            console.log(\"You have permission to bid!\");\n        }\n        \n        else {\n            console.log(\"No permission to bid! Register yourself with the auctioneer.\");\n        }\n    }\n\n    function registerWithAuctioneer(string calldata name, address bidder) public { // register the bidder with the auctioneer\n        require(\n            msg.sender == auctioneer,\n            \"Only the auctioneer can give the permission to bid!\"\n        );\n\n        require(\n            !bidders[bidder].permissionToBid,\n            \"You have already been granted permission to bid!\"\n        );\n\n        bidders[bidder].permissionToBid = true;\n        bidders[bidder].name = name;\n\n        console.log(\"%s, you have been successfully registered with the auctioneer.\", name);\n        console.log(\"You can now bid items.\");\n    }\n\n    function putItemUpForBidding(uint itemIndex) public {\n        require(\n            msg.sender == auctioneer,\n            \"You cannot put an item up for bid, only the auctioneer can do it.\"\n        );\n\n        uint price = getInitPrice(10) * 1000;\n        item = itemIndex;\n        items[itemIndex - 1].highestBid = price;\n        console.log(\"We have %s with index %d. The bid starts at %d\", items[item - 1].name, item, price);\n    }\n\n    function bid() public view {\n        require(\n            bidders[msg.sender].permissionToBid,\n            \"You have no permission to bid! First register with the auctioneer.\"\n        );\n\n        Item memory it = items[item - 1];\n\n        it.highestBid += 500;\n        it.highestBidder = msg.sender;\n        console.log(\"%s are bidding %s for %d\", bidders[msg.sender].name, it.name, it.highestBid);\n        console.log(\"Do we have %d?\", it.highestBid + 500);\n    }\n\n    function endAuction() public view {\n        require(\n            msg.sender == auctioneer,\n            \"Only the auctioneer can end the auction!\"\n        );\n        for (uint i = 0; i < items.length; i++) {\n            console.log(\"%s has been sold to %s for %d.\", items[i].name, items[i].highestBidder, items[i].highestBid);\n        }\n    }\n}",
  "sourcePath": "/home/amitash/auction/contracts/auction.sol",
  "compiler": {
    "name": "solc",
    "version": "0.8.16+commit.07a7930e.Emscripten.clang"
  },
  "schemaVersion": "3.4.9",
  "updatedAt": "2022-09-12T18:35:40.766Z",
  "networkType": "ethereum",
  "devdoc": {
    "kind": "dev",
    "methods": {},
    "version": 1
  },
  "userdoc": {
    "kind": "user",
    "methods": {},
    "version": 1
  }
}